:020000040000fa
:080000000002040000000000f2
:020000040000fa
:04000800520300009f
:020000040000fa
:04000c00520300009b
:020000040000fa
:040010005203000097
:020000040000fa
:040014005203000093
:020000040000fa
:04001800520300008f
:020000040000fa
:04001c00520300008b
:020000040000fa
:040020005203000087
:020000040000fa
:040024005203000083
:020000040000fa
:04002800520300007f
:020000040000fa
:04002c00520300007b
:020000040000fa
:040030005203000077
:020000040000fa
:04003400f8020000ce
:020000040000fa
:04003800520300006f
:020000040000fa
:04003c00520300006b
:020000040000fa
:040040005203000067
:020000040000fa
:040044005203000063
:020000040000fa
:04004800340300007d
:020000040000fa
:04004c00520300005b
:020000040000fa
:040050005203000057
:020000040000fa
:040054005203000053
:020000040000fa
:04005800520300004f
:020000040000fa
:04005c003e0300005f
:020000040000fa
:040060005203000047
:020000040000fa
:040064005203000043
:020000040000fa
:04006800d0020000c2
:020000040000fa
:04006c00c8020000c6
:020000040000fa
:040070005203000037
:020000040000fa
:040074005203000033
:020000040000fa
:04007800520300002f
:020000040000fa
:04007c00520300002b
:020000040000fa
:040080005203000027
:020000040000fa
:040084005203000023
:020000040000fa
:04008800520300001f
:020000040000fa
:04008c00520300001b
:020000040000fa
:040090005203000017
:020000040000fa
:040094005203000013
:020000040000fa
:04009800520300000f
:020000040000fa
:04009c00520300000b
:020000040000fa
:0400a0005203000007
:020000040000fa
:0400a4005203000003
:020000040000fa
:0400a80052030000ff
:020000040000fa
:0400ac0052030000fb
:020000040000fa
:0400b00052030000f7
:020000040000fa
:0400b40052030000f3
:020000040000fa
:0400b80052030000ef
:020000040000fa
:0400bc0052030000eb
:020000040000fa
:0400c00052030000e7
:020000040000fa
:0400c40052030000e3
:020000040000fa
:0400c80052030000df
:020000040000fa
:0400cc0052030000db
:020000040000fa
:0400d00052030000d7
:020000040000fa
:0400d40052030000d3
:020000040000fa
:0400d80052030000cf
:020000040000fa
:0400dc0052030000cb
:020000040000fa
:0400e00052030000c7
:020000040000fa
:0400e40052030000c3
:020000040000fa
:0400e80052030000bf
:020000040000fa
:0400ec0052030000bb
:020000040000fa
:0400f00052030000b7
:020000040000fa
:0400f40052030000b3
:020000040000fa
:0400f80052030000af
:020000040000fa
:0400fc0052030000ab
:020000040000fa
:0401000052030000a6
:020000040000fa
:0401040052030000a2
:020000040000fa
:04010800520300009e
:020000040000fa
:04010c00520300009a
:020000040000fa
:040110005203000096
:020000040000fa
:040114005203000092
:020000040000fa
:04011800520300008e
:020000040000fa
:04011c00520300008a
:020000040000fa
:040120005203000086
:020000040000fa
:040124005203000082
:020000040000fa
:04012800520300007e
:020000040000fa
:04012c00520300007a
:020000040000fa
:040130005203000076
:020000040000fa
:040134005203000072
:020000040000fa
:04013800520300006e
:020000040000fa
:04013c00520300006a
:020000040000fa
:040140005203000066
:020000040000fa
:040144005203000062
:020000040000fa
:04014800520300005e
:020000040000fa
:04014c00520300005a
:020000040000fa
:040150005203000056
:020000040000fa
:040154005203000052
:020000040000fa
:04015800520300004e
:020000040000fa
:04015c00520300004a
:020000040000fa
:04020800520300009d
:020000040000fa
:04020c005203000099
:020000040000fa
:040210005203000095
:020000040000fa
:040214005203000091
:020000040000fa
:04021800520300008d
:020000040000fa
:04021c005203000089
:020000040000fa
:040220005203000085
:020000040000fa
:040224005203000081
:020000040000fa
:04022800520300007d
:020000040000fa
:04022c005203000079
:020000040000fa
:040230005203000075
:020000040000fa
:04023400f8020000cc
:020000040000fa
:04023800520300006d
:020000040000fa
:04023c005203000069
:020000040000fa
:040240005203000065
:020000040000fa
:040244005203000061
:020000040000fa
:04024800340300007b
:020000040000fa
:04024c005203000059
:020000040000fa
:040250005203000055
:020000040000fa
:040254005203000051
:020000040000fa
:04025800520300004d
:020000040000fa
:04025c003e0300005d
:020000040000fa
:040260005203000045
:020000040000fa
:040264005203000041
:020000040000fa
:04026800d0020000c0
:020000040000fa
:04026c00c8020000c4
:020000040000fa
:040270005203000035
:020000040000fa
:040274005203000031
:020000040000fa
:04027800520300002d
:020000040000fa
:04027c005203000029
:020000040000fa
:040280005203000025
:020000040000fa
:040284005203000021
:020000040000fa
:04028800520300001d
:020000040000fa
:04028c005203000019
:020000040000fa
:040290005203000015
:020000040000fa
:040294005203000011
:020000040000fa
:04029800520300000d
:020000040000fa
:04029c005203000009
:020000040000fa
:0402a0005203000005
:020000040000fa
:0402a4005203000001
:020000040000fa
:0402a80052030000fd
:020000040000fa
:0402ac0052030000f9
:020000040000fa
:0402b00052030000f5
:020000040000fa
:0402b40052030000f1
:020000040000fa
:0402b80052030000ed
:020000040000fa
:0402bc0052030000e9
:020000040000fa
:0402c00052030000e5
:020000040000fa
:0402c40052030000e1
:020000040000fa
:0402c80052030000dd
:020000040000fa
:0402cc0052030000d9
:020000040000fa
:0402d00052030000d5
:020000040000fa
:0402d40052030000d1
:020000040000fa
:0402d80052030000cd
:020000040000fa
:0402dc0052030000c9
:020000040000fa
:0402e00052030000c5
:020000040000fa
:0402e40052030000c1
:020000040000fa
:0402e80052030000bd
:020000040000fa
:0402ec0052030000b9
:020000040000fa
:0402f00052030000b5
:020000040000fa
:0402f40052030000b1
:020000040000fa
:0402f80052030000ad
:020000040000fa
:0402fc0052030000a9
:020000040000fa
:0403000052030000a4
:020000040000fa
:0403040052030000a0
:020000040000fa
:04030800520300009c
:020000040000fa
:04030c005203000098
:020000040000fa
:040310005203000094
:020000040000fa
:040314005203000090
:020000040000fa
:04031800520300008c
:020000040000fa
:04031c005203000088
:020000040000fa
:040320005203000084
:020000040000fa
:040324005203000080
:020000040000fa
:04032800520300007c
:020000040000fa
:04032c005203000078
:020000040000fa
:040330005203000074
:020000040000fa
:040334005203000070
:020000040000fa
:04033800520300006c
:020000040000fa
:04033c005203000068
:020000040000fa
:040340005203000064
:020000040000fa
:040344005203000060
:020000040000fa
:04034800520300005c
:020000040000fa
:04034c005203000058
:020000040000fa
:040350005203000054
:020000040000fa
:040354005203000050
:020000040000fa
:04035800520300004c
:020000040000fa
:04035c005203000048
:020000040000fa
:10040000af8020000edf20000e01880000000000f9
:10041000000020000000e000020032000001200087
:100420002002880014000700a00007000000e00080
:1004300003003a0060212100010020000200370083
:100440000000200001002000810f70000100320038
:1004500014000700000020000000e000020032004d
:100460000000020000000000360f02000000000043
:100470000040da000000fe004440a9000000200017
:100480000000e0000300320000002000a00188000e
:100490004440a800000006008a1f78008b1f7800e7
:1004a0000000060091018800800478000000eb0045
:1004b0001a003700e284440032a0b4009905ba0063
:1004c000e284440032a0b4009906ba00e2844400f9
:1004d00032a0b4000006eb00476fde00fd07b2005b
:1004e000636ce10003003a00ebff07000000eb0043
:1004f0000a003700606ce10004003a00005deb0088
:100500008b05e900fdff3e00040037006168e10053
:10051000010032000086eb000b00070019c7ba008b
:100520001905ba000e04e00003003a000a00e000da
:10053000e0ff3a0000000600fe07b2009e018800be
:100540008a047800f5ff3700395dba008b05e900b1
:100550000c003200295dba008b05e900080032006a
:100560000c00e00003003a00e284440032a0b40032
:10057000f5ff370019ddba008b05e900faff3a00f4
:100580008904e800e184440032a0b40000000600c1
:100590000000fa008620a9000080fa000040060052
:1005a000809fbe000000fa008600a9004110800074
:1005b00000022000008060000000e00002003a001d
:1005c0000468ef000700370041108000000220009f
:1005d000008060000000e0000200320010c0b300a4
:1005e00004e8b7000080fa004f00be00004006009b
:1005f000809fbe00821f78000000fa008460a9007e
:10060000fc62a90021e3a8002023a80050c3200019
:100610001008880011408000d0cc2c000008b800e1
:100620004308de000040780006e8b70006c8bf00b7
:100630000080fb007f00b90000017800b047210076
:100640000090b900c388de004f90de0000805000ab
:100650007f004000000c88000080fa004f01780005
:100660004f00be00004006000000fa008500a9000f
:100670000a21ef000080fa0000400600801f780089
:100680000000fa0085a0a900001880001040880032
:1006900021e3a9002023a9000080fa004f00780080
:1006a000004006000040da000000fe0000000500e7
:1006b0004f89de008201780067023700889fbe0004
:1006c0008a9fbe008c9fbe001b0020000202be005d
:1006d0000586680006002800060666004709de0059
:1006e000f20fb200820032000243e80080003200c4
:1006f000c729de00f30fb2007d0032000343e8009b
:100700007b003200f107b2000170a000f507b200d3
:100710000570a000c708dd004903de008680700078
:100720004700dd00c72add004923de008682720013
:100730004722dd0003055100040350008583580063
:100740000300310000004000818048000a05e900f4
:100750008c1f78008a9fbe000400500085805800de
:100760000402420085824a00000040008180480067
:100770000005eb000004be006033b8000406be00b4
:100780000d48e10056003100110009004dccd800a1
:100790000c01b8000d02b8008481410060824a005b
:1007a0008283530003045c0084845c0060055d0068
:1007b0000a00e00025003a00800578000d40e100c5
:1007c0004900310088007800070078001100090016
:1007d0004d88d8000c01b8000d02b800848141009a
:1007e00060824a006003110083835b0004045c00a4
:1007f000e0845c000900e00021003a004f01be00e7
:100800000300e0002b003200e301600007067300e4
:100810008c81710001003200640070004200de0033
:100820004e5edd000c007000c258de0001e0a0004a
:1008300083010700cf017800818071004f06be0060
:100840004f05be004f04be00000006008c8343002d
:100850000d044c00e0844c0060054d000000e900f0
:100860000a00e000d4ff32008c8343000d044c00ea
:10087000e0844c0060054d000000e900ceff370029
:100880000c0343008d834b0060044c00e0844c005b
:100890000000e9000900e000d8ff32000c0343002b
:1008a0008d834b0060044c00e0844c000000e900a4
:1008b000d2ff37004200de004e5edd000c0070000b
:1008c000c258de0001e0a000cf0178000300e00084
:1008d000daff320060001000e0801800d7ff370018
:1008e000f0ff2f00aaff3700f0ff2f00b9ff3700fd
:1008f0000404be002f010700870678000004fd00f5
:100900008104fd002b010700078366000678a30021
:10091000030032000960a7000800be002c00370069
:100920000d78a300020032000800be002800370046
:100930000778a30026003a0001f0a10009f0a10009
:100940000668a30003003200f1ff2700f0ff2f002c
:10095000baff37000d68a300030032000800be0094
:100960008c807000b5ff37000768a30007003a00cd
:100970000648a30003003200f1ff2700f0ff2f001c
:10098000aeff37000d48a300030032006000b8003e
:100990008c807000a9ff37000748a30004003200d4
:1009a00001f82700000020008c807000a3ff3700b2
:1009b000760107000004fd008104fd0002057800b7
:1009c000720107000802be008a01780059ff370053
:1009d0000160a000120220004240880097ff37000b
:1009e0000100e000120032000500e00010003200bb
:1009f000889fbe008a9fbe008c9fbe000006eb0051
:100a000001f8a3000300320060001000e08018002d
:100a10000cf0a00005f8a3000300320060021200f1
:100a2000e0821a000cf0a2008005eb0041ff3700c5
:100a30006000b8000200050003836800070028007a
:100a400007036300470ade000480a100c71ade0026
:100a50000580a100f70f20000720e10042003200ce
:100a60000728e10040003200889fbe008a9fbe0038
:100a70008c1f7800f107b200f307b2000400e00019
:100a8000640032000170a0000500e0006800320040
:100a90000370a00085054200eb07b1000204b80016
:100aa0000302b8008484440060854a00020ab8004a
:100ab000848444000a854a00030ab80004054500fe
:100ac000040033000804d0008984d2000a85d200d3
:100ad0008b05e9006158e1003d003500021020005f
:100ae000090161000308200089816100f7072000e7
:100af0008783640008867300c84cde00c853dd009d
:100b0000878474004855de000300e00006003200d0
:100b100082037600040032008904e80060054d007d
:100b20000a88a3000c003a00f70f20000758e100e4
:100b300044003d000a70a100c75ddd000a85750014
:100b40008a007300090078004f0678004f05be0048
:100b50004f04be00000006000a05d1008984d300be
:100b60008b05e800f0ff3700881f78000604780046
:100b700090000700070278000001fd008101fd00e0
:100b80008c00070087027800850372000778a300b5
:100b9000050032000001fd008101fd009f000700fb
:100ba0004f04780000000600850372000748a30088
:100bb00003003200f0ff2f00f1ff2700f8ff37009d
:100bc0000000200001f8270088807000f4ff370043
:100bd000880178004848dd00808171004848de00c7
:100be000c850dd0001007000c850de000604780027
:100bf0000b0178001600070088807000d2ff3700d4
:100c00000500e00005003200170020003a00070050
:100c10009dff370081037000f9ff3a0086007800dd
:100c20004f0678004f05be004f04be0000000500cf
:100c300083037100f9ff3200270020002e00070017
:100c400094ff370001f8270086807000f4ff37001a
:100c50000100e00026003200610111007810e1007f
:100c600023003c006022b8007010e1000400350051
:100c700080027800010078008000eb0070015100d4
:100c80000200e0000900340070031100062add00b4
:100c9000822ade008603dd00878272000200de0009
:100ca000860bdd00070070008208de008481710081
:100cb000f4ff270004826200848171000400280090
:100cc000848262006102600005f0a6000000060058
:100cd00004827100070032000000e800e080480054
:100ce000000006000002be006000b800efff370001
:100cf0006000b80000000600889fbe000004eb0002
:100d00006138e10016003a000100e00008003a00f6
:100d1000c800de004800dd00880020000100e0007f
:100d200003003a00c800de004800dd00680444000b
:100d30008184cf00e9845400060034008908dd0076
:100d4000f08314008703de00878070000900dd0057
:100d500009044400610214004f04be0000000600b4
:100d60000300e00008003a00c811de004811dd0071
:100d7000880020000300e00003003a00c811de00f4
:100d80004811dd00680444008384cf00e9845400e6
:100d9000060034008919dd00f08314008713de009b
:100da000878171000911dd0009044400e10214008b
:100db000e9ff37002700200001f0a70017002000fe
:100dc000470bde00f60fb200040032000643e800d5
:100dd0000a0032004702b300000006000103780059
:100de000f607b2000603700002003a000703b300e2
:100df000000006008702b30000000600010378002f
:100e0000f607b20006037000020032000770a0006f
:100e1000000006000760a000000006000478a300a0
:100e2000040032000578a300030032000168a3002b
:100e300001003a000200be000160a00000000600b0
:100e400081017000270032008002eb0001f8a3004e
:100e50000300320060001000e08018001500200040
:100e6000f40720000202420020003400f7032000b3
:100e700087036000060420000003630002082000ce
:100e8000000161004700de00c909dd00008071003b
:100e9000c708de000600e00008003200870371008a
:100ea000060032001000b0000180b0000188a300ed
:100eb00002003200c108de000402e800f107b200bf
:100ec000f30f20000320e10003003d004722dd0076
:100ed000810072002900370001f827000000eb00b4
:100ee000260037006000b80000000600680212000b
:100ef0007f20e100020034006000b8001f003700ce
:100f00006011b8007020e100040035008001780015
:100f1000010078008000eb00700252000400e00045
:100f200009003400f00312000719dd008419de0007
:100f30000703dd00868171000400de00070bdd0081
:100f4000060070008408de00f7ff2700838363003b
:100f500087037100060028000303630007003200c6
:100f60000700e00003003a006101600002817300a5
:100f7000020032001000b0000180b0000500a600a1
:100f80000000060001f0a000000006004f0ade008d
:100f90004709de00f107b200f20fb2000b00320089
:100fa000f207b1000170a000c708dd00c901de0032
:100fb000838070004700dd000400a60000000600ea
:100fc00060001000e080180000000600810f700033
:100fd00001003a00000006008182cf000500e00019
:100fe00010003e008082cf00ee8242007028e100b7
:100ff0000400390007003e00800078000000eb008c
:101000000e003700708312008600de000500dd0050
:101010000a003700708352008600dd000000eb00fc
:1010200006003700e28252008508dd00708312005e
:101030000603de00868070000500dd007507b00045
:101040000501ea000400a600000006006000100090
:10105000e080180000000600881f78000304780074
:101060000300e00007003d0060001000e080180071
:1010700060011900e081190002003b0001f02d0021
:10108000030037000400070008f0a70001f0a000eb
:101090004f04780000000600889fbe008a9fbe00b3
:1010a0000082700004027100048271002600320088
:1010b0000004be000200be006011b8006b092000f1
:1010c000950220000182cf000a0039000541b100dd
:1010d0000082cf00070039000541b1000982cf002e
:1010e000040039000541b1000882cf000100390039
:1010f0000541b10005425200120032000a003b00d7
:1011000082817100610164008100d1000080d30000
:101110008984d3000884d3008b05e8000442e800ea
:10112000f7ff3a00070037000804440089844c00a8
:1011300000004800818048008b05e9000442e90076
:10114000f9ff3a00030007004f05be004f04be0040
:101150000000060081002000618055000b003d006a
:101160000b00200061fe2f000100e1001d00340093
:1011700082817100610164008904d1000884d30078
:101180000000e800faff3a007100200061006400ee
:101190000300700002006000090032006104440096
:1011a000e0844c000988a500050032008b05e800aa
:1011b0006808e10002003a008904d1000884d300e5
:1011c000f20f20000258e10005003d00c75ddd0080
:1011d000f907b20089807500080078000000060059
:1011e0000bf827008b007800000005000800fa00cb
:1011f0000002be008501780003f0a1000001780024
:10120000a6fd200097f42300860f5100878f590018
:101210000d003e00f4ff2f00f5972300840f5100ce
:10122000858f59005a003e000200200003b82700b5
:1012300029020700e0bf9f00f1bf9f0000002000cf
:1012400001f82300600037004f0ade00050020008f
:10125000163d2500b7072400860f5100878f5900df
:1012600019003e0036be2c0067012400860f510095
:10127000878f59000a0036000400e00004003200a5
:10128000b2fd200093042400130207004800370039
:10129000b2fd20009304240006020700440037003a
:1012a0000400e00004003200b2fd200093fc2300a3
:1012b00009020700430037000001be00b0fd200016
:1012c00091fc230019003700561d2300270e24002f
:1012d000860f5100878f590016003e00f6dd2e0064
:1012e000f70a2400860f5100878f59000a00360044
:1012f0000400e00004003200b2fd2000930c240042
:10130000f501070022003700b2fd2000930c2400f5
:10131000e80107001e0037000400e0000100320071
:1013200001f0a20042be2c0063092400e101070085
:1013300024003700f4ff2f00f5f72700840f510039
:10134000858f5900030036000001be00d901070057
:101350001d00370068815700e20007006011b800e7
:1013600063016000e10f5100e08f59000a00320074
:10137000e20f5100e08f59000b003200e00f5100e6
:10138000e08f59000d003a004fb89700dfb8970082
:10139000a60007000c0037004fb89700dfb8970091
:1013a00001f0a200070037004fb89700dfb89700a0
:1013b0009e00070001f0a200030037004fb897001d
:1013c000dfb89700200107000080fa000000060047
:1013d0000800fa00889fbe000004be000001be00a5
:1013e0008300780001f0a10008007800a4fd20002f
:1013f00095f42300840f5000858f580018003e009c
:10140000f2ff2f00f3972300820f5000838f5800c4
:1014100011003e00f2ff2f00f3072000820f500062
:10142000838f580005003e00020020000338200092
:101430000800be0080fd0700040037000200200005
:1014400003b827000800be00a3010700c0bf9f002b
:10145000d1bf9f00710037000800be006800370050
:101460004f49de0003002000143d2500b50724008d
:10147000840f5000858f58001f003e0034be2c00a2
:1014800065012400840f5000858f58000e003e0037
:101490000200e00005003200b2fd200093fc2300b2
:1014a0000800be008c01070059003700b2fd200083
:1014b00093fc23000800be007e0107005b000700cc
:1014c0000004be00550037000200e00005003200b5
:1014d000b2fd2000930424000800be007e01070036
:1014e00046003700b2fd2000930424000800be002f
:1014f0007001070041003700541d2300250e240011
:10150000840f5000858f58001d003e00f4dd2e0032
:10151000f50a2400840f5000858f58000c003e000f
:101520000200e0000500320042be2c0063092400e6
:101530000800be0068010700e0ff370042be2c0033
:10154000630924000800be005a010700300037007c
:101550000200e00005003200b2fd2000930c2400e0
:101560000800be005c01070025003700b2fd200026
:10157000930c24000800be004e0107002000370035
:10158000f2ff2f00f3f72700820f5000838f5800df
:10159000040036000801be000800be004501070037
:1015a000c7ff37006c8157000800be004d000700e0
:1015b0006011b80063016000e10f5100e08f590035
:1015c00009003200e20f5100e08f5900090032009b
:1015d000e00f5100e08f59000b003a002fb8970040
:1015e000bfb89700060037002fb89700bfb8970024
:1015f000b2ff37002fb89700bfb8970001f0a200e4
:1016000091000700aeff37002fb89700bfb89700d2
:10161000060007000004be0009f0a2000800be009a
:101620004f04be000080fa0000000600889fbe0044
:101630008a9fbe008c9fbe000001be00fefc07001a
:101640000004be000001be00fbfc07000005be0058
:101650000200200003f02b000800be00f6fc07008b
:101660000200200003f823001b0107000006be0053
:10167000f2a92a00a3d223000a00be00eefc070054
:101680000001be000c00be00130107000006be00f2
:101690000801be000a00be00e7fc07000005be000e
:1016a00072a12900c37c23000800be00e2fc0700f1
:1016b000f243200063ab2300fe0007000001be00e0
:1016c0000a00be00dcfc07000001be000c00be00ea
:1016d000010107004f06be004f05be004f04be00cb
:1016e000000006000800fa00889fbe008a9fbe0026
:1016f0008c9fbe000005be00020478000001be0001
:101700008300780001f0a1000a007800a2fd20000b
:1017100093dc2400820f5000838f58001d003e0090
:1017200032982f0023f223000a00be00c2fc0700fb
:101730000200200003b42400e7000700020020009c
:1017400003b42400db0007000006be00a30007006e
:1017500080047800a2fd200093fc23000c00be0052
:10176000b5fc07000001be000a00be00d100070062
:101770000005be00325a2800832823000c00be005a
:10178000adfc07000001be000a00be00c900070052
:1017900026003700f2ff2f00f3f72700820f5000da
:1017a000838f5800060036000a01be000a00be0002
:1017b000c0000700008cbe008004eb001c00370056
:1017c0000a00be00500007000005be0032982f003e
:1017d00023f2230098fc07000200200003f02300fe
:1017e000bd000700540007000203be000002be0057
:1017f000e4b79f00f5b79f0086bf9f0097bf9f008b
:1018000015fe070032982f0023f22300abfb0700e0
:101810000001be000a00be00a60007006000b8007c
:101820002004980031049800efb49700008cbe00ab
:10183000090078004f06be004f05be004f04be00f1
:101840000080fa0000000600889fbe008a9fbe004c
:101850008c9fbe000005be000001be0076fc0700a4
:101860000004be000a01be0073fc07000006be00b3
:101870004288280083c023000800be006efc0700d9
:10188000b2aa2a00a3e223008a0007000001be00da
:101890000c00be0068fc07000001be000a00be008c
:1018a0008d0007000005be000801be000800be0054
:1018b00061fc07000001be000c00be005efc0700da
:1018c0000006be00c2c32600636323000800be00fa
:1018d00059fc0700f27c20000395230075000700e7
:1018e0000001be000c00be0053fc07000001be005a
:1018f0000a00be00780007004f06be004f05be007c
:101900004f04be00000006006022b8006033b8003b
:101910000002be00f0ff2f00f1ff2f00f2ff2f00aa
:10192000f3ff270000006200818062000201630073
:1019300083816300000006000003be00480007002a
:101940006011b8000470a70007f0a1006509b1009c
:101950001b00320012003500860220000628e1003c
:1019600008003500f3ff2700f2ff2f006110b900d7
:101970000700e00018003b00030028006000b800ea
:10198000020005000000400081804800020149007b
:10199000838149008502e900faff3a000800370018
:1019a000f88f420002003c008000eb0000000500c0
:1019b0008100d1000080d3008502e800fcff3a00de
:1019c0000700e00004003b0060001000e080180009
:1019d00060011900e0811900000006000001be004e
:1019e0001f0007000470a70003f0a1006509b10003
:1019f000160032000d0035006828e10006003500b1
:101a0000f0ff2f00f1ff27000300e00013003b0070
:101a1000010028000000050000004000818048000f
:101a20008502e900fcff3a0008003700f88f420009
:101a300002003c008000eb00000005008100d100a6
:101a40000080d3008502e800fcff3a000300e000bc
:101a500002003b0060001000e0801800000006005b
:101a6000c70ade00f107b200f50fb200080032002d
:101a7000e1cf4200020032000170a0002400050006
:101a8000810f7000010032000408050044000500c9
:101a9000810f700002003a00140005008502e90081
:101aa0000000400081c04800fcff3b000170a00026
:101ab0002400050007f82700078361000638e100cd
:101ac00004003a00f7072000878361008703710054
:101ad00001003a0003f0a200889fbe008a9fbe006a
:101ae0008c9fbe00470ade000480a100c71ade00fa
:101af0000580a10007002800078560008785610038
:101b0000f70f20000720e1009e0032000728e100c7
:101b10009c003200010678000400e000b4003200ae
:101b2000f7072000878060000170a0000500e0003a
:101b3000c0003200f7072000878161000370a00019
:101b4000050652000f003a000b50e1000b00320076
:101b50000308e10002003a000200e1007e003200ca
:101b60000204500083845800040031000001fd008d
:101b70008101fd008402fd008a05fd006044b8007b
:101b8000210037000520e10005003d000001fd00b7
:101b90008101fd008402fd008a05fd00050652005a
:101ba0007a60e100050035000170a1004722dd00e8
:101bb000848070008a807000630037006044b80041
:101bc000ef02660007ff2f00070666000500e00031
:101bd00006003400f08312008714dd000511de00da
:101be000071bdd00060171008519de007060e10051
:101bf00005003500090478008204780003017800ac
:101c00008001eb00700656000b50e10003003a0023
:101c10000200400083804800040037006004140084
:101c2000e0841c0002005800838058000188a30053
:101c3000060032008100d1000080d3008984d300e7
:101c40000884d3000402e800270037000178a300cd
:101c500025003a000100e000030032008186cf0039
:101c6000698656000a0037008c0020000000e00062
:101c700004003a0009007800880478000004eb00b2
:101c8000700252008086cf000d0646000c06e90067
:101c90007060e100060035008000780009007800df
:101ca000880478000004eb007006560070025200b1
:101cb0000c00e0000c0034008c08dd00f00316007e
:101cc0000703de00868070000c00dd00074bde009d
:101cd000060070008c4cdd000743de008684740033
:101ce0000c44dd000c0252006120e10020003500b0
:101cf000610160000700280087816400f7ff27006a
:101d000087836400070374000300e00006003200cc
:101d100082037300040032000000e800e080480005
:101d20000188a3000e003a00f70f20000720e10011
:101d30004a003d000170a1004722dd0081007200d1
:101d40008a8070000000be004f06be004f05be0036
:101d50004f04be00000006006000b800faff370024
:101d60008100d1000080d3000402e800eeff3700bc
:101d70000401780089017400b5fb07008a807000b7
:101d8000f1ff37000bfc0700070278000001fd009f
:101d90008101fd0007fc07008702780085037200bf
:101da0000778a300040032000001fd008101fd005e
:101db0001afc0700e4ff3700850362000768a300f0
:101dc000080032000b50e10003003200f0ff2f004a
:101dd000f1ff2700dcff37000001fd008101fd005d
:101de000d9ff37000468a300d7ff3200faff37009d
:101df000f8ff2700888360000b003a000000e00035
:101e000009003a00830364008283730002003200f9
:101e10000200be00ccff37000b50e100ceff3a00bd
:101e20000200be00c8ff37001400200081006400db
:101e30003eff3700f8ff27008883610004003a0066
:101e40000200e00002003a008c007800beff37007c
:101e5000150020008301640039ff370001f82700d6
:0c1e60000000200081007500b7ff370073
:020000040000fa
:101e6c000200fa000080eb0060198800cd02a90086
:101e7c00c902a900401f2000d80007001b00070062
:101e8c002f0007007401070038010700c082a90069
:101e9c006000a800c882a9006020a800c042a90068
:101eac0063c0a800c8e2a90062e0a8006105800038
:101ebc000000270001007000600588008660a90002
:101ecc009660a8000000eb00000f78001e00780060
:101edc000000e000030032000000eb00000f78006f
:101eec00faff37000140fe00f8ff37000000fa004f
:101efc0021088000f0fc2f00008060000040a00052
:101f0c00200888000421a90005a1a9002105800052
:101f1c00f0ff28000080600000d0a00020058800a1
:101f2c008460a9009460a80005e1a8000021ef00de
:101f3c0020a12700100888000080fa00000006008d
:101f4c000000fa001061a90091088000f0fc2f003d
:101f5c00008060000040a000900888001221a900b9
:101f6c0013a1a9004105800080ff2f0000806000b4
:101f7c000010a000400588008500a9009500a8006d
:101f8c0010272000700888000a21ef0013e1a80038
:101f9c000080fa00000006000200fa00004f7800f2
:101fac00cc82a800cce2a900c482a900c442a8003b
:101fbc00700880008000e8001e80fb000088b900db
:101fcc0000007800000c88000080fa000000060079
:101fdc000200fa00004f7800cc82a800cce2a800e6
:101fec00c482a800c442a8000080fa0000000600c9
:101ffc000200fa00004f7800cc82a900cce2a900c4
:10200c00c482a900c442a9000080fa0000000600a6
:10201c000200fa000040eb00004f78000040eb009b
:10202c00104798001e409000e14f50000100360010
:10203c000068ef0000c8bf000080fb00e10f5000fb
:10204c0007003200e30f5000090032000000e000ee
:10205c0008003a001e409000ddff07000500370025
:10206c001e409000e2ff0700000000000100370056
:10207c00000000000080fa00000006001600fa00c4
:10208c00889fbe0040012000000f78004001200016
:10209c00100798006000b8002007980031079800de
:1020ac006000b8004007980051079800100020000d
:1020bc0060079800b0fd200091f423007007980091
:1020cc00010f98007e0090008e08900044fc0700e1
:1020dc000004be006e009000cf80de0071f9070096
:1020ec000001be000800be0050fa07000004be004c
:1020fc007e0090008e089000b2fc07000001be002c
:10210c000800be006af90700100f9800210f980014
:10211c001e0b9000ae0b90004e029000de02900061
:10212c002e019000be0190009e0078001e009000d1
:10213c00040007000000eb004f04be000080fa0012
:10214c00000006001000fa00000f7800110798003c
:10215c002207980033079800440798005507980009
:10216c006607980077079800010037000000000010
:10217c001e009000cf80de004af90700d2cc2c0064
:10218c00c3f4230029fa07001e007800cf80de007c
:10219c0044f90700d2cc2c00c3f4230023fa070027
:1021ac00040007000000e000f0ff3200050007000b
:1021bc00efff37000000fa000000eb000080fa008f
:1021cc00000006000000fa000080fa000000060083
:1021dc000000fa000080fa00000006000400fa007b
:1021ec00100798001e00900001022000810f500083
:1021fc000b003200411f2000810f500005003200ff
:10220c00e80f500009003a000040eb00004f780046
:10221c000800370060c6b300004f78000500370097
:10222c0050c5b300004f78000200370050c5b30012
:10223c00004f780011028000000e20000100700099
:10224c0010028800213a8000f08f2f00008060007f
:10225c00203a88001e81fb0080072000a109200085
:10226c0033742000804978008149780082497800d5
:10227c00120020006004200071052000237420004f
:10228c00804978008149780082497800000000007c
:10229c00103a8000610060000000e000fcff3a0092
:1022ac0011028000f0f12f00008060001002880005
:1022bc000080fa00000006000000fa0007e2a80007
:1022cc0007a2a900fc82a9009620a8009600a800ed
:1022dc000742a900f0032000501088000080fa008b
:1022ec00000006000200fa00000f78001e007800c3
:1022fc0001192000810f500009003200813e20009e
:10230c00810f50000900320041062000810f50005f
:10231c0009003a00e0042000201088000600370075
:10232c0020012000201088000300370060002000ee
:10233c0020108800000000000080fa000000060059
:10234c000400fa00204798000040eb00004f780092
:10235c000080fa00000006000200fa000040eb00ca
:10236c00004f78000080fa00000006000000fa0020
:10237c0001198000000e2000010070000019880077
:10238c002043a90001198000f0cf2f0000806000cd
:10239c000019880011198000f0ff210000806000f6
:1023ac00101988002343a9001119800030fc2f005c
:1023bc0000806000101988002223a9002203a900c4
:1023cc0025e3a9002119800000f021000100700014
:1023dc002019880028e3a9004119800000ff2f0074
:1023ec00008060005000b300401988002ca3a900a5
:1023fc003023ef0051058000f0f82f008080600042
:10240c0000032000010070005005880095a0a80072
:10241c0021e3a8002023a8000080fa000000060099
:020000040000fa
:10242c00040800000200000000000000000800008a
:10243c00040000000000000006080000020000007c
:10244c00020000000100000008080000020000006b
:08245c00000000000000000078
:020000040000fa
:102464000000fa008021ef008221ef00210c80009f
:1024740080ff2f00008060006000b300200c880003
:102484008461a800fc62a9000080fa000000060034
:020000040000fa
:0200000401f009
:04000000ffffff00ff
:020000040000fa
:0200000401f009
:04000800ffffff00f7
:020000040000fa
:0200000401f009
:04000c0000000000f0
:020000040000fa
:0200000401f009
:040010007b00000071
:020000040000fa
:0200000401f009
:040014005f00000089
:020000040000fa
:0200000401f009
:04001800fb000000e9
:020000040000fa
:0200000401f009
:04001c00c20000001e
:020000040000fa
:0200000401f009
:04002000ff000000dd
:00000001FF
